:04000000F8EF3EF0E7
:107D8A00C69A1200C5CF2BF01F0E2B16D8A4FAD70D
:067D9A00C7A41200F7D798
:107DA1004D4943524F434849503A4932435F4D414F
:107DB1005354455200C6500F0B080AD8B404D0C61C
:107DC100500F0B0B0AD8B4C586C7A0FED7C95012F5
:107DD100002C6E3F0EC716000EC66E000EC56E2C2F
:107DE10050C6122B50C71294869488C68A1200A1DD
:107DF1000EF66E7D0EF76E000EF86E00EE16F010A8
:107E0100EE15F00900F5CFEEFFE550E150FAE10083
:107E1100EE01F0150EEE6AE806FDE1000191EF3F7B
:107E2100F020D0DBEC3EF02BC0D9FF2CC0DAFFDF15
:107E31006E2B4A2C2AC5B6FED7A1A602D0FF0E1280
:107E410000C6500F0B080AD8B405D0C6500F0B0B53
:107E51000AD8A407D02D50D8B404D0C59AC588C576
:107E6100B8FED72D062D28D8A4DCD7000E1200208D
:107E7100D0C6A60DD02DC0D9FF2EC0DAFFDF5062CB
:107E8100EC3FF02F6E2F50D8B411D02F5012009E1E
:107E9100962DC0D9FF2EC0DAFFDF50C96EC6889E6D
:107EA100A6FED7C6B8C7B002D0FE0E12002D4A2ECC
:107EB1002A2DC0D9FF2EC0DAFFDF50D8A4D9D700B0
:107EC1000E12002C6E2CC0C9FFC6AE02D0FF0E12DE
:107ED10000C6500F0B080AD8B40FD0C6500F0B0BB9
:107EE1000AD8B40AD0C6889EA6FED7C7A4C7B002D6
:107EF100D0FE0E1200000E1200C6500F0B080AD859
:107F0100B405D0C6500F0B0B0AD8A41200C7B0FE9F
:107F1100D7C7EC3EF0C5AC02D0FE0E1200000E1227
:107F210000000E316E000E326E000E356E140E35ED
:107F31006401D00CD03550010D010EF324D96E002F
:107F41000EF420DA6E000EDF6E352AF0D7A20E3362
:107F51006EC5EC3EF0080E316E800E326E32C02BD3
:107F6100F03150E9EC3EF00A0EC86EC7EC3EF0C5A8
:107F710080C5B0FED7C9CF30F0335062EC3FF0344A
:107F81006E3450D8A4F9D7160E2D6E000E2E6E3811
:107F9100EC3FF00009D8A4F7D7C7EC3EF0C582C585
:107FA100B2FED7C7EC3EF0C9CF30F0A20E336E332C
:107FB10050010962EC3FF0346E3450D8A4F8D70177
:107FC1000E2B6E000E2C6E140E2D6E11EC3FF00078
:107FD10009D8A4F5D7000E156EC58AC588C5B8FEA7
:107FE100D7C5EC3EF0FFD7160E2D6E000E2E6E3863
:0F7FF100EC3FF00009D8A4F7D7C5EC3EF0FFD75E
:020000040020DA
:08000000FFFFFFFFFFFFFFFF00
:020000040030CA
:0E000000FF881F00FF8381FF0FC00FE00F403D
:00000001FF
